{
  "_format": "hh-sol-artifact-1",
  "contractName": "BatteryCommonsAuction",
  "sourceName": "contracts/BatteryCommonsAuction.sol",
  "abi": [
    {
      "anonymous": false,
      "inputs": [
        {
          "indexed": true,
          "internalType": "uint256",
          "name": "orderId",
          "type": "uint256"
        },
        {
          "indexed": false,
          "internalType": "address",
          "name": "trader",
          "type": "address"
        },
        {
          "indexed": false,
          "internalType": "uint256",
          "name": "amount",
          "type": "uint256"
        },
        {
          "indexed": false,
          "internalType": "uint256",
          "name": "price",
          "type": "uint256"
        },
        {
          "indexed": false,
          "internalType": "bool",
          "name": "isBuy",
          "type": "bool"
        }
      ],
      "name": "OrderPosted",
      "type": "event"
    },
    {
      "anonymous": false,
      "inputs": [
        {
          "indexed": true,
          "internalType": "uint256",
          "name": "buyId",
          "type": "uint256"
        },
        {
          "indexed": true,
          "internalType": "uint256",
          "name": "sellId",
          "type": "uint256"
        },
        {
          "indexed": false,
          "internalType": "uint256",
          "name": "amount",
          "type": "uint256"
        },
        {
          "indexed": false,
          "internalType": "uint256",
          "name": "clearingPrice",
          "type": "uint256"
        }
      ],
      "name": "OrdersMatched",
      "type": "event"
    },
    {
      "inputs": [],
      "name": "getAllOrders",
      "outputs": [
        {
          "components": [
            {
              "internalType": "address",
              "name": "trader",
              "type": "address"
            },
            {
              "internalType": "uint256",
              "name": "amount",
              "type": "uint256"
            },
            {
              "internalType": "uint256",
              "name": "price",
              "type": "uint256"
            },
            {
              "internalType": "bool",
              "name": "isBuy",
              "type": "bool"
            }
          ],
          "internalType": "struct BatteryCommonsAuction.Order[]",
          "name": "",
          "type": "tuple[]"
        }
      ],
      "stateMutability": "view",
      "type": "function"
    },
    {
      "inputs": [
        {
          "internalType": "uint256",
          "name": "buyId",
          "type": "uint256"
        },
        {
          "internalType": "uint256",
          "name": "sellId",
          "type": "uint256"
        }
      ],
      "name": "matchOrders",
      "outputs": [],
      "stateMutability": "nonpayable",
      "type": "function"
    },
    {
      "inputs": [
        {
          "internalType": "uint256",
          "name": "",
          "type": "uint256"
        }
      ],
      "name": "orders",
      "outputs": [
        {
          "internalType": "address",
          "name": "trader",
          "type": "address"
        },
        {
          "internalType": "uint256",
          "name": "amount",
          "type": "uint256"
        },
        {
          "internalType": "uint256",
          "name": "price",
          "type": "uint256"
        },
        {
          "internalType": "bool",
          "name": "isBuy",
          "type": "bool"
        }
      ],
      "stateMutability": "view",
      "type": "function"
    },
    {
      "inputs": [
        {
          "internalType": "uint256",
          "name": "amount",
          "type": "uint256"
        },
        {
          "internalType": "uint256",
          "name": "price",
          "type": "uint256"
        },
        {
          "internalType": "bool",
          "name": "isBuy",
          "type": "bool"
        }
      ],
      "name": "postOrder",
      "outputs": [],
      "stateMutability": "nonpayable",
      "type": "function"
    }
  ],
  "bytecode": "0x608060405234801561001057600080fd5b50610bf8806100206000396000f3fe608060405234801561001057600080fd5b506004361061004c5760003560e01c80631756353d146100515780637bea0d1c1461006d578063a85c38ef1461008b578063bfb1eb01146100be575b600080fd5b61006b6004803603810190610066919061069b565b6100da565b005b6100756103da565b604051610082919061084a565b60405180910390f35b6100a560048036038101906100a0919061086c565b6104be565b6040516100b594939291906108c6565b60405180910390f35b6100d860048036038101906100d39190610937565b61052b565b005b600082815481106100ee576100ed61098a565b5b906000526020600020906004020160030160009054906101000a900460ff1680156101495750600081815481106101285761012761098a565b5b906000526020600020906004020160030160009054906101000a900460ff16155b610188576040517f08c379a000000000000000000000000000000000000000000000000000000000815260040161017f90610a16565b60405180910390fd5b6000818154811061019c5761019b61098a565b5b906000526020600020906004020160020154600083815481106101c2576101c161098a565b5b9060005260206000209060040201600201541015610215576040517f08c379a000000000000000000000000000000000000000000000000000000000815260040161020c90610a82565b60405180910390fd5b600080828154811061022a5761022961098a565b5b906000526020600020906004020160010154600084815481106102505761024f61098a565b5b90600052602060002090600402016001015410610292576000828154811061027b5761027a61098a565b5b9060005260206000209060040201600101546102b9565b600083815481106102a6576102a561098a565b5b9060005260206000209060040201600101545b905060006002600084815481106102d3576102d261098a565b5b906000526020600020906004020160020154600086815481106102f9576102f861098a565b5b9060005260206000209060040201600201546103159190610ad1565b61031f9190610b34565b905081600085815481106103365761033561098a565b5b906000526020600020906004020160010160008282546103569190610b65565b9250508190555081600084815481106103725761037161098a565b5b906000526020600020906004020160010160008282546103929190610b65565b9250508190555082847faa00869ecc7a2675aeae91fe142fd1e0c7a67e5ada2b1618f934701dd2e2d6ab84846040516103cc929190610b99565b60405180910390a350505050565b60606000805480602002602001604051908101604052809291908181526020016000905b828210156104b557838290600052602060002090600402016040518060800160405290816000820160009054906101000a900473ffffffffffffffffffffffffffffffffffffffff1673ffffffffffffffffffffffffffffffffffffffff1673ffffffffffffffffffffffffffffffffffffffff16815260200160018201548152602001600282015481526020016003820160009054906101000a900460ff161515151581525050815260200190600101906103fe565b50505050905090565b600081815481106104ce57600080fd5b90600052602060002090600402016000915090508060000160009054906101000a900473ffffffffffffffffffffffffffffffffffffffff16908060010154908060020154908060030160009054906101000a900460ff16905084565b600060405180608001604052803373ffffffffffffffffffffffffffffffffffffffff168152602001858152602001848152602001831515815250908060018154018082558091505060019003906000526020600020906004020160009091909190915060008201518160000160006101000a81548173ffffffffffffffffffffffffffffffffffffffff021916908373ffffffffffffffffffffffffffffffffffffffff160217905550602082015181600101556040820151816002015560608201518160030160006101000a81548160ff0219169083151502179055505050600160008054905061061e9190610b65565b7f64d66993f76e45902b6296d5e28b74e8ad7b7116a0810d7ac3959117c255839f3385858560405161065394939291906108c6565b60405180910390a2505050565b600080fd5b6000819050919050565b61067881610665565b811461068357600080fd5b50565b6000813590506106958161066f565b92915050565b600080604083850312156106b2576106b1610660565b5b60006106c085828601610686565b92505060206106d185828601610686565b9150509250929050565b600081519050919050565b600082825260208201905092915050565b6000819050602082019050919050565b600073ffffffffffffffffffffffffffffffffffffffff82169050919050565b600061073282610707565b9050919050565b61074281610727565b82525050565b61075181610665565b82525050565b60008115159050919050565b61076c81610757565b82525050565b6080820160008201516107886000850182610739565b50602082015161079b6020850182610748565b5060408201516107ae6040850182610748565b5060608201516107c16060850182610763565b50505050565b60006107d38383610772565b60808301905092915050565b6000602082019050919050565b60006107f7826106db565b61080181856106e6565b935061080c836106f7565b8060005b8381101561083d57815161082488826107c7565b975061082f836107df565b925050600181019050610810565b5085935050505092915050565b6000602082019050818103600083015261086481846107ec565b905092915050565b60006020828403121561088257610881610660565b5b600061089084828501610686565b91505092915050565b6108a281610727565b82525050565b6108b181610665565b82525050565b6108c081610757565b82525050565b60006080820190506108db6000830187610899565b6108e860208301866108a8565b6108f560408301856108a8565b61090260608301846108b7565b95945050505050565b61091481610757565b811461091f57600080fd5b50565b6000813590506109318161090b565b92915050565b6000806000606084860312156109505761094f610660565b5b600061095e86828701610686565b935050602061096f86828701610686565b925050604061098086828701610922565b9150509250925092565b7f4e487b7100000000000000000000000000000000000000000000000000000000600052603260045260246000fd5b600082825260208201905092915050565b7f4d757374206d617463682062757920776974682073656c6c2e00000000000000600082015250565b6000610a006019836109b9565b9150610a0b826109ca565b602082019050919050565b60006020820190508181036000830152610a2f816109f3565b9050919050565b7f427579207072696365203c2053656c6c2070726963652e000000000000000000600082015250565b6000610a6c6017836109b9565b9150610a7782610a36565b602082019050919050565b60006020820190508181036000830152610a9b81610a5f565b9050919050565b7f4e487b7100000000000000000000000000000000000000000000000000000000600052601160045260246000fd5b6000610adc82610665565b9150610ae783610665565b9250828201905080821115610aff57610afe610aa2565b5b92915050565b7f4e487b7100000000000000000000000000000000000000000000000000000000600052601260045260246000fd5b6000610b3f82610665565b9150610b4a83610665565b925082610b5a57610b59610b05565b5b828204905092915050565b6000610b7082610665565b9150610b7b83610665565b9250828203905081811115610b9357610b92610aa2565b5b92915050565b6000604082019050610bae60008301856108a8565b610bbb60208301846108a8565b939250505056fea26469706673582212202b4e5915a05887305c9dc6d68522e792c3698ecf02429b1d4bf76c1b5ccaa6c764736f6c63430008120033",
  "linkReferences": {},
  "deployedLinkReferences": {}
}